:020000040000FA
:060000000216E0020A34C2
:03001300020A5688
:03002B000214714B
:03003300020C7E3E
:03003B00020AAB0B
:0300530002096936
:03005B000211E3AC
:0300630002120482
:03006B00020C2460
:03007B00020C551F
:100083000209C8010020FD000201AC0500000001C7
:10009300D01CE21C0000E81CEE1C00000000F41C55
:1000A3000C1D121D181D00000000000000000102BD
:1000B3000408102040800801FF0D01010401FEFF28
:1000C3000000000000000006FFFFFFFFFFFFFF012D
:1000D30001010400E21A000000E8030000FFFF5AD8
:1000E3001BE803000064006400B801A0BB0D00A07E
:1000F300BB0D00020200F8FF0705021E0401051EE6
:1001030002051E020A0A01010808010310270280E2
:100113003E0102FEFFE8030A050001FFFF010A1486
:1001230001E0C503423F1A51123FF304B53F0000FB
:10013300803E010105030101FF0F10FEFF1B3C0080
:100143000000008D3A00000000FF000000FF00C027
:1001530082C083E9FA5407F8745328F582E4341E05
:10016300F583E0F87900EA1202F7600814600914D5
:10017300600D8012E5808002E5905870078007E5E6
:10018300A0586002790102025FC082C0831203900B
:10019300600814601214601C802BEA6005EB428037
:1001A3008023E85280801EEA6005EB42908016E8C7
:1001B30052908011EBC39420500BEA6005EB42A0F0
:1001C3008003E852A002025FC082C0831202FD7066
:1001D3000302025F1202F6600814602C1460508060
:1001E3007BE852F374016A601274026A6015740446
:1001F3006A7003EB428FEB42FD806153F7DFE852F5
:100203008F80F343F72080F6E852F474016A60129A
:1002130074026A601574046A7003EB42F6EB42FEE3
:10022300803A53F7BFE852F680F343F74080F6EB8A
:10023300C394205027E852F574016A601274026A6D
:10024300601574046A7003EB42F7EB42FF800D53B1
:10025300F77FE852F780F343F78080F6D083D082AC
:1002630022C082C0831202FD60791202F660081474
:10027300602B14604E806CE852F352FD74016A6087
:100283000F74026A600F74046A7058EB428F8053D4
:1002930053F7DF800343F720E8528F8046E852F498
:1002A30052FE74016A600F74026A600F74046A700C
:1002B30032EB42F6802D53F7BF800343F740E852F9
:1002C300F68020EBC39420501AE844E0F852F5522C
:1002D300FF74016A601074026A601374046A700325
:1002E300EB42F702025F53F77FE852F780F543F7DB
:1002F3008080F6E9C4540F54032212039AEB22C000
:1003030082C0831202FD603A1202F6600814601282
:1003130014601C802DEA6005EB42FD8025E852FD48
:100323008020EA6005EB42FE8018E852FE8013EB62
:10033300C39420500DEA6005EB42FF800574E0484A
:1003430052FF02025FC082C08312039060081460F0
:10035300151460228034EA6005EB42808003E85282
:1003630080EB42FD8024EA6005EB42908003E85273
:1003730090EB42FE8014EBC39420500EEA6005EB31
:1003830042A08003E852A0EB42FF02025F12039AED
:10039300E9C4540F540322E95407FC74532CF58227
:1003A300E4341EF583E0FBF4F8221202F66007142E
:1003B3006013146020227801E8F4FBEA60201460E3
:1003C3002114601522740F59C394045004780280D9
:1003D300E7780480E3780880DFE58C586004EB520B
:1003E3008C22E8428C221216F0601D1216FF700553
:1003F300191919801A121581701F121559C3700328
:10040300E6673319191940071818182208080874E1
:10041300FFF618F618F618F6221215596017121778
:10042300A5702192F01217AE7019501720F014081E
:100433000808090909E7F61819E7F61819E7F6187D
:1004430019E7F6221217AE60E6E869701F0808E69E
:100453002480F608E436F618547FB47F0CE6548003
:100463006007F6E418F618F622181822E9C6CC0835
:10047300C6CD08C6CE08C6CFC0E0E8C0E0EAC0E0FB
:10048300EBC0E009E9F809E7FA09E7FBE6F918E642
:10049300F8C3EC98ED99EE9AEBC2E7F5F0EFC2E7FB
:1004A30095F0500E600CEBCFFBEACEFAE9CDF9E8FC
:1004B300CCF8EAA2E7D2E7FAEB33FB13F5F0EEA2AE
:1004C300E7D2E7FEEF33FFC5F013A2E730E601B34F
:1004D30013C5F0C3C0E0C0F07F00C39BFB605E9414
:1004E30018600F401D14601AD0E023F9D0E0F80221
:1004F30005CA8AF0E9486003D2F0E4AFF0FAF9F8EC
:10050300803BEB30E40D89F0EA6003D2F0E4AFF016
:10051300F9CAF8EB30E30D88F0EF6002D2F0AFF0E8
:10052300E4CAC9F8EB54076014FBC3EA13FAE913EE
:10053300F9E813F8EF135002D2E0FFDBEDD0E0C08F
:10054300E030E739C3E49FFFF5F0EC98FC42F0EDAF
:1005530099FD42F0EE9AFE42F0D0E0F9D0E0F8E5E2
:10056300F0607AE923F9EE20E742D8028067C3EF0F
:1005730033FFEC33FCED33FDEE33FE80EAEC28FC75
:10058300ED39FDEE3AFED0E023F9D0E0F8400280E9
:100593001BC3EE13FEED13FDEC13FCEF135002D25D
:1005A300E0FF08B800067F7F74FF802EEF335017FB
:1005B3008CF020F00260100CBC000C0DBD00080E86
:1005C300BE000408E860DFE933E813FFEE2313FEFF
:1005D3004F4D4C8008E95480FFE4FEFDFCEE33EF01
:1005E30033F47004FCFD7E80D0E0FBD0E0FAD0E071
:1005F300F8D0E0CFC618CEC618CDC618CCC6F9229F
:100603001216F07004181818221216FF700D74FFDA
:10061300F61819F61819F61819F622E7548066F633
:100623001217AE700F1217A570F014F608F608F63D
:1006330008F680D11217A5700CF608F60876800824
:10064300E6447F80EC12155C700C12158460BFE6E3
:100653005480F6E480BB121584700519191980A51E
:10066300E869700C763F18768018F618F6E8F922D8
:10067300E6CDC0E018ECC0E0E633CD33CDD313F6BE
:10068300E719FCE7191933CC33C3947F400ECD9D92
:10069300502408E65480F6E418F6800FF4043D1461
:1006A300501408E6447FF6187680E418F618F6D05E
:1006B300E0FCD0E0FD22CCD313CCFD18E4C6CBC0C4
:1006C300E018E4C6CAC0E00808ED08C633E613F62E
:1006D30018E433C675F003C3CA97CA09CB97CB197D
:1006E3009C40047D08802EBD00030207AC16B6FFB4
:1006F300050606081618C3CA33CACB33CB33CA2739
:10070300CA09CB37CB193CC37D08803E187D08202E
:10071300E75CC633C6CA33CACB33CB33DDF1D5F07E
:10072300EB30E77BCA97CA09CB974ACB199C406F3A
:100733004B7025E620E0218066187D08C3CA97CA5E
:1007430009CB97CB199CD3C633C6CA33CACB33CB99
:100753003350C9DDE7D5F0E1D3E4C636C608C63663
:10076300C608C636C608C636C61818188031C3CAA6
:1007730097CA09CB97CB199CB34097C633C6CA33E4
:10078300CACB33CB33DD34D5F02EC6A2E0C640C886
:10079300CA27CA09CB37194A70BECB3CB480B90803
:1007A30008E63308E633601F181818D0E0FAD0E0E3
:1007B300FBD0E0FCD0E0FD22187D08CA27CA09CB94
:1007C30037CB193CD3808013F618E4B67F11F618A3
:1007D300B6FF0EF618C60470D20808768080CAF6F3
:1007E30018F618F680C5001216F0604F1216FF6057
:1007F30012E7548066F612158170111217A5703B2B
:10080300090909F4F618F618F618F62212155970A4
:10081300151217AE08080860EAE6447FF6187680DA
:1008230018E4F618F6221217AE60161217A5701206
:10083300E4F608F608F608E65480F60909091818DC
:100843001822EAC0E0EBC0E0ECC0E0EDC0E0E687D0
:10085300F0A4FBACF008E687F0A42CFCE435F0FA36
:100863001809E687F0A42C4B60027401CA35F0FC2A
:10087300E433FB09E687F0D2F7A42CCB35F0FC195F
:1008830008E687F0A42BCC35F0FBE433FD0819E62A
:1008930087F0D2E7A42C4ACB35F0CD3400FC09E62F
:1008A30087F0D2E7A42DCC35F0FDE433FA0918E63E
:1008B30087F0D2F7A42CCD35F0CA3400FC08E687C4
:1008C300F0D2E7D2F7A42ACC35F07A7E20E70B0AE0
:1008D300CB33CBCD33CDCC33CC33CB3350147004AB
:1008E300ED30E00ED2F1E4CD3DCDCC3CCC3B500518
:1008F300DA05C2F1EB547FC63308E63392F0FBE727
:100903003309E733C39A502D2B70190C0D4C4D70DE
:10091300151806E608C333700D20F10AA2F013F68A
:10092300E418800B4024E4F630F002768018F618C1
:10093300F618F68024D33B14501074FFA2F013F67C
:10094300187680E418F618F6800FA2F013F618E66E
:100953003303F618ECF618EDF6D0E0FDD0E0FCD04A
:10096300E0FBD0E0FA22C0E074F1120E7AA2AFE409
:1009730033F509D2AF85A708AFA1EF5508FE741070
:100983005E60061219CA75A1EF74085E6008121939
:10099300D075A1F78024EFA2E092F0E508A2E082EF
:1009A300F05017906198E0F890051CE0C398A2D22C
:1009B30065D0335002E8F075A1FEE509A2E092AFDD
:1009C3007F02020ED9C0E074F2120E7AA2AFE433B2
:1009D300FED2AF9061A4E0F8759B00E591585408EE
:1009E30060087591F7121A188023E5915854106026
:1009F300087591EF121A1E8014E591A2E092F0E8B7
:100A0300A2E082F05007E0C2E0F0121B689061A3FD
:100A1300E0F8E5E9585404600E121B3E75E9FB90BB
:100A23006193E0A2E640F2EEA2E092AF7F01020EF4
:100A3300D9C0E074F2120E7AA2AFE433FED2AF90C3
:100A430061A5E0F8E5BF585404600675BFFB121BAF
:100A53008080D4C0E0C0D0E8C0E0E9C0E0C082C07C
:100A630083A8C1E8C0E09004C9E0F8744828F5827F
:100A7300E43404F583D0E0F09004C8E0F8A3E06820
:100A83007006E5959004CBF09004C9E004F0C3949C
:100A9300804002E4F0A374C6F0D083D082D0E0F9A2
:100AA300D0E0F8D0D0D0E032C0E0C0D0E8C0E0E978
:100AB300C0E0C082C08390050CE0F8A3E068700832
:100AC300539AFBA374018022C2E990050CE0F874E9
:100AD3000128F074CC28F582E43404F583E0F5C1F1
:100AE30090050CE0C394404002E4F080AC120B3B51
:100AF30030F039120B808034120B3B20F01430E7B6
:100B03002B74FFFCFBFA747F8022E4FCFBFA7480F5
:100B1300801AB48008BC00F2BB00EF800F50EBF9E1
:100B2300E4C39AFAE49BFBE49CFCE499C6CC18C6A4
:100B3300CB18C6CA18C6F922E4C9C608CAC608CB68
:100B4300C6D3330308CCC63392F0C3947F402E94AC
:100B5300184019C9B90704CACBCC225025C309CA06
:100B630033CACB33CBCC33CC33D9F422F4600DC9A5
:100B7300CCC313CB13CBCA13CAD9F6CC22E4FCFBE8
:100B8300FA2214FCFBFA22C3E498F8E499F9120B55
:100B9300CB8026C3E49AFAE49BFBE920E7E9120B36
:100BA300CBE498F8E499F922C3E498F8E499F912AC
:100BB3000BCBE498F8E499F9C3E49AFAE49BFB229B
:100BC300EB20E7CFE920E7E0B90010BB0008E88A93
:100BD300F084F8AAF022E4FBC8FA22EB70227B101F
:100BE300C833C8C933C9335007C39AC3DBF280067D
:100BF3009A50012ADBEAC833F4C8C933F4C9FA228C
:100C030075F008E4C833C8C933C933C99AC99B50BE
:100C130004C92AC93BD5F0ECFBC833F4C8E4C9FACC
:100C230022C0E074F2120E7AA2AFE433FED2AF9088
:100C330006C6E05589600FE589FA7900121E2C90EB
:100C430006C6E0F45289C2C5EEA2E092AF7F01026C
:100C53000ED9C0E074F2120E7AA2AFE433FED2AF23
:100C63009006C7E0558A600FE58AFA7901121E2CB7
:100C73009006C7E0F4528AC2EB80CDC0E074F21252
:100C83000E7AA2AFE433FED2AF9006C8E0558B6074
:100C93000FE58BFA7902121E2C9006C8E0F4528BF2
:100CA300C2E880A4080808EAC0E0EBC0E086F0E7E9
:100CB300A4FA180986F0E7A42AFA180986F0E7A42B
:100CC3002AFA180986F0E7A42AFA1986F0E7A4FBA2
:100CD300E5F02AFA190886F0E7A42BFBE5F03AFAC7
:100CE300190886F0E7A42BFBE5F03AFA18180986F1
:100CF300F0E7A4C5F02BFBE43AFA1908E7C5F0C600
:100D0300A426F6E5F03BFBE43AFA1886F0E7A4F6EE
:100D1300E5F00826F6E43B08F6E43A08F6D0E0FBF3
:100D2300D0E0FA22080808E630E7111215BD120DCB
:100D33003F080808C64480C618181822181818E96E
:100D4300799EC608CAC608CBC608CCC6C37020792C
:100D530096CACBCC7019798ECBCC70137986CC70B4
:100D63000EF9802ACA33CACB33CBCC33CC331930F8
:100D7300E7F2CCCBCA3350147004EA30E00DE4CA76
:100D83003ACACB3BCBCC3CCC500209C3E913C6CC0B
:100D9300182313C6CB18C6CA18C6F922E4CFC0E07D
:100DA300E4CEC0E0E4CDC0E0E4CCC0E075F020E6E2
:100DB30026F608E633F608E633F608E633F618189F
:100DC30018EC33FCED33FDEE33FEEF33FFC3EC974A
:100DD30009ED9709EE9709EF97191919400FFFECE1
:100DE30097FC09ED97FD09EE97FE191906D5F0BF9B
:100DF300ECF709EDF709EEF709EFF7191919D0E048
:100E0300FCD0E0FDD0E0FED0E0FF222518C582C073
:100E1300E0E51934FFC583C0E0E518C3958224F8E3
:100E230010AF088583198582188008858319858208
:100E330018D2AFCEF0A3E520F0A37808E608F0A31C
:100E4300DEFAEFF0A3E58124FAF8E608F0A3E6085A
:100E5300F0A3E608F0A30808E608F0A3E608F0A369
:100E630015811581D0E0FED0E0F81581158115813B
:100E7300E8C0E0EEC0E022C0D02518C582C0E0E59E
:100E83001934FFC583C0E0E518C3958224F310AF7E
:100E9300088583198582188008858319858218D26D
:100EA300AFC8F0A3E9F0A3EAF0A3EBF0A37908E756
:100EB30009F0A3D8FAECF0A3EDF0A3EEF0A3EFF062
:100EC300A3D0E0F0A3D0E0F0A3D0E0F0A3E520F0BE
:100ED300A3E5F0F0A322851983851882E0C0E0A37F
:100EE300E0F9A3E0FAA3E0FBA37808E0F608A3DFA8
:100EF300FAE0FCA3E0FDA3E0FEA3E0FFA3E0C0E073
:100F0300A3E0C0E0A3E0F5D0A3E0F520A3E0A3F5C0
:100F1300F010AF08858319858218800885831985A9
:100F23008218D2AFD082D083D0E0F8D0E03212154D
:100F3300C0181818120D9F12168F1919192212169C
:100F43008F191919080808E618181820E7E0120D78
:100F53009F1215C018181822090909E71919192031
:100F6300E7DC080808E618181820E703020D9F12AB
:100F730015C0181818120D9F1215C018181812163C
:100F83008F19191922121790B90003020FC7E490A1
:100F930003F17838791B8002F0A3D8FCD9FA7A28B8
:100FA3007B1E90008678CD79018015E493A3AD82F2
:100FB300AE838A828B83F0A3AA82AB838D828E83D6
:100FC300D8E9D9E77582CE7583CB74071213E87518
:100FD30082E275833774001213E8E4731E75F01010
:100FE3008E1A8F1B85821F85831E85188285198320
:100FF300E0CEA3E0CF851F82851E83EBC9EAC8ED4F
:10100300CBECCAC3E833C8E933C9EA33CAEB33CB01
:10101300C3EA9EF51DEB9FF51CB35004AB1CAA1D40
:10102300EC33CCED33CDD5F0DAAE1AAF1B2212166A
:10103300F0601C1216FF60171217AE70071217A587
:101043007001D322C0D01217A57006D0D0B322C32B
:101053002233D0D0501430E0F6C3E7960809E79660
:101063000809E7960809E796B32220E0D5E6970832
:1010730009E6970809E6970809E697B322D083D0D3
:1010830082ECC0E0EDC0E0E493A3FCE493A3FDEDA8
:101093004C600D1211A4EC24FFFCED34FFFD80EF36
:1010A300E493A3FCE493A3FDED4C600D1212ABECAF
:1010B30024FFFCED34FFFD80EFD0E0FDD0E0FCE445
:1010C30093A3C0E0E493C0E0221216F0601B121653
:1010D300FF60161217AE70071217A5600CB322C07B
:1010E300D01217A57005D0D022C32233D0D050130D
:1010F30030E0EBC3E7960809E7960809E796080985
:10110300E7962220E0E4E6970809E6970809E697C0
:101113000809E69722D083D082E9C0E0E493A3C311
:1011230086F0C5F095F0F908E493A386F0C5F09531
:10113300F0700BE493A3C3994005E9048002A3E490
:1011430075F002A42582F582E5F03583F583D0E0BE
:10115300F9E493A3C0E0E493C0E0228519838518E2
:1011630082E0A3FEE0A3F5207808E0A3F608DFFA07
:10117300E0A3FFE0A3C0E0E0A3C0E0E0A3C0E0E0A1
:10118300A3C0E0E0A3C0E010AF08858218858319EF
:101193008008858218858319D2AFD083D082021349
:1011A300EEC0E0C3E49396087401939618400FE4ED
:1011B3009366700808740193661870007019A3A3EE
:1011C300C3E49396087401939618A3A3400DD0E04B
:1011D300D0E0D0E00210BCA3A3A3A3A3A3D0E0223A
:1011E300C0E074F2120E7AC2D9901E6FE0C394006D
:1011F300A2D265D0334005E0F91221B07F01020E7F
:10120300D9C0E074F2120E7AC2DC901E71E0F9C309
:101213009400A2D265D03340031221B080DE74045F
:10122300800474028000CCC0E0EDC0E0E518C39CEC
:10123300CCAD1950011D10AF068C188D1980068C8A
:10124300188D19D2AF12136AD0E0FDD0E0FC2274DE
:10125300028000CCC0E0EDC0E0E518C39CCCAD1922
:1012630050011D10AF068C188D1980068C188D192E
:10127300D2AF121326D0E0FDD0E0FC221216F060AC
:10128300251216FF60201217AE70030217A5080877
:1012930008E76670101819E766700A1819E7667090
:1012A300041819E76622F422C0E0C0F088F0E49342
:1012B3006670080874019366187000A8F0A3A37001
:1012C3000BD0F0D0E0D0E0D0E00210BCA3A3D0F06C
:1012D300D0E022D083D082CCC0E0E493A360061296
:1012E300138B1470FAE493A360061214EE1470FACD
:1012F300D0E0FCE493A3C0E0E493C0E022C008C3C1
:10130300E096F50808A3E096420808A3E096420891
:1013130008A3E0964208A2D265D033E5087001D352
:10132300D00822CAC0E0E493A3C582CCC582C5839A
:10133300CDC583F0A3C582CCC582C583CDC583DA71
:10134300E5D0E0CA22A2E792D65002F40430F706B1
:1013530063F0FF05F0B3400384800384F40430D6C4
:101363000563F0FF05F022CAC0E0E0A3C582CCC547
:1013730082C583CDC583F0A3C582CCC582C583CD89
:10138300C583DAE6D0E0CA22C0E0E493A3D39C503D
:1013930010E493A3C39C400AD0E0D0E0D0E0021253
:1013A300F3A3A3A3D0E0227009080808226016184B
:1013B3001818C6C333C608C633C608C633C608C61C
:1013C30033C6D5E0EA22C008C3E096F50808A3E0D7
:1013D30096420808A3E096420808A3E096450870E1
:1013E30001D3D00822C09FF59FE473D09F22D083FE
:1013F300D082C09FE493C0E0740193C0E074029371
:10140300F59F227404800A740380067402800274B8
:1014130001C0E0F40412143CD0E012173B2200C0D8
:10142300D0251810AF08F518500C05198008F518C9
:1014330050020519D2AFD0D0222518F58210AF087B
:10144300F518400C15198008F51840021519D2AF8C
:1014530085198322BB0102E722C082C08389828A65
:1014630083BB0003E08002E493D083D08222C0E0F8
:10147300C0D0E8C0E0A8A8D2AFC2C7E8A2E792AF45
:10148300D0E0F8D0D0D0E0326017080808C6A2E751
:1014930013C618C613C618C613C618C613C6D5E096
:1014A300E9226016080808C6C313C618C613C6186F
:1014B300C613C618C613C6D5E0EA22C3E0C696F61D
:1014C30008A3E0C696F608A3E0C696F608A3E0C60E
:1014D30096F6222518F8E43519F9222518FAE43589
:1014E30019FB222518FCE43519FD22C0E0E493A37F
:1014F3006C7009D0E0D0E0D0E00212F3A3A3D0E0F7
:1015030022251810AF08F518400C15198008F51896
:1015130040021519D2AF22E76670100809E766701A
:101523000A0809E76670040809E76622C3E096081B
:10153300A3E09608A3E09608A3E096A2D265D03371
:1015430022E066701008A3E066700A08A3E06670E4
:101553000408A3E06622191919E70947097009E786
:1015630027097005E733F4220922C3E096F008A3A4
:10157300E096F008A3E096F008A3E096F02218188E
:1015830018E60846087009E626087005E633F422D3
:101593000822C3E493960874019396087402939601
:1015A300087403939622C3E697F60809E697F608AC
:1015B30009E697F60809E697F622181818E4C39681
:1015C300F608E496F608E496F608E496F622E05662
:1015D300F008A3E056F008A3E056F008A3E056F0A5
:1015E30022E667F60809E667F60809E667F60809DA
:1015F300E667F622E493F608740193F608740293FF
:10160300F608740393F622E657F60809E657F60838
:1016130009E657F60809E657F622E627F60809E62B
:1016230037F60809E637F60809E637F622E026F624
:1016330008A3E036F608A3E036F608A3E036F62260
:10164300E026F008A3E036F008A3E036F008A3E0B4
:1016530036F022E647F60809E647F60809E647F6B4
:101663000809E647F622700422600D18C6C333C684
:1016730008C633C6D5E0F41822E056F608A3E056B0
:10168300F608A3E056F608A3E056F622E4C397F75C
:1016930009E497F709E497F709E497F722600D083F
:1016A300C6A2E713C618C613C6D5E0F322C6F4C60E
:1016B30008C6F4C608C6F4C608C6F4C622C3E09634
:1016C30008A3E09608A3E09608A3E09622C3E79652
:1016D3000809E7960809E7960809E7962275D000F6
:1016E30075813F7518F175190300020F88E60846E6
:1016F30008C3134608336002E633F422E7094709B7
:10170300C3134709336002E733F422600C08C6C3EE
:1017130013C618C613C6D5E0F422E6F008A3E6F014
:1017230008A3E6F008A3E6F022E0F608A3E0F60833
:10173300A3E0F608A3E0F622CAC0E0E6F0A308DAC5
:10174300FAD0E0FA22E0FCA3E0FDA3E0FEA3E0FF71
:1017530022EAF0A3EBF0A3ECF0A3EDF022E0FAA36E
:10176300E0FBA3E0FCA3E0FD22E8F0A3E9F0A3EA99
:10177300F0A3EBF022ECF0A3EDF0A3EEF0A3EFF077
:1017830022E0F8A3E0F9A3E0FAA3E0FB22E5C754C3
:10179300F84401F5C77901222518F582E43519F5D6
:1017A3008322E72719471947194722E626184618BF
:1017B30046184622C2AF75D69F020000221213F1CB
:1017C3005BD3051213F1ADD4051213F163D50512E2
:1017D30013F162D6051213F195D7051213F176AE04
:1017E300071213F108AF071213F147B0071213F1F1
:1017F30063B0071213F127FF061213F138FF061225
:1018030013F1D6FF061213F1E1FF061213F1EFFFF6
:10181300021213F1E6FF051213F167FF031213F12E
:1018230077FF031213F18CFF031213F1F2FF03127C
:1018330013F121D8071213F1A4D8071213F10AD90F
:10184300071213F1CEC9071213F109CA071213F1D4
:1018530065CA071213F1BDCA071213F144CB07126D
:1018630013F180CB071213F1B8DE071213F1C8DEB0
:10187300071213F107A7071213F15DA7071213F15C
:10188300ACA7071213F1D9A7071213F12FA8071258
:1018930013F192DD071213F12FC3071213F179C36A
:1018A300071213F10FC4071213F195C4071213F1B2
:1018B300C6C4071213F1DEC4071213F152C507128F
:1018C30013F168C5071213F17BC5071213F185C520
:1018D300071213F131F4031213F17DF9031213F11B
:1018E300AFF9031213F1DBF9031213F183FA0312B5
:1018F30013F179FD031213F10080061213F16580D1
:10190300061213F11581061213F1E281061213F187
:101913003883061213F12284061213F12985061265
:1019230013F10987061213F13C87061213F1A687F8
:10193300061213F1CD87061213F13389061213F140
:10194300B789061213F1CB89061213F1D778001267
:1019530013F1527A001213F1717B001213F1467DD9
:10196300001213F134F5061213F160F5061213F1A8
:10197300D1F7061213F111F8061213F151F80612FA
:1019830013F165F8061213F17EF8061213F16FF9DD
:10199300061213F114FA061213F128FA061213F1C0
:1019A30009D2071213F12DD2071213F146D20712EF
:1019B30013F178D2071213F1A8D2071213F1D5D27B
:1019C300071213F137D3071213F146D3071213F19A
:1019D30050D3071213F15DD3071213F199C0071205
:1019E30013F1B9C0071213F1F8C0071213F113C1B1
:1019F300071213F132C1071213F198C1071213F141
:101A0300A1C1071213F1FEC1071213F122C207127B
:101A130013F1E3C2071213F1F0C2071213F101C36A
:101A2300071213F181DC071213F199DC071213F18A
:101A3300C5DC071213F1FF84071213F1598607124D
:101A430013F16786071213F17A86071213F18F8653
:101A5300071213F1A486071213F1B786071213F1C5
:101A63002B87071213F19087071213F1328807129D
:101A730013F1F688071213F10689071213F115897A
:101A8300071213F12ADA071213F14EDA071213F1D0
:101A930076DA071213F19EDA071213F198C50712CB
:101AA30013F1BFC5071213F1DDC5071213F150C6B9
:101AB300071213F1FFBA071213F118BB071213F140
:101AC30024BB071213F138BB071213F156BB0712DD
:101AD30013F160BB071213F16ABB071213F17DBB4D
:101AE300071213F103BC071213F178BC071213F1A9
:101AF300A7BC071213F1F5BC071213F144BD07127B
:101B030013F15FBD071213F169BD071213F17ABD1B
:101B1300071213F1BDBD071213F136DC071213F1DF
:101B2300B093061213F1DA93061213F1F793061228
:101B330013F10A94061213F12094061213F17E9402
:101B4300061213F1B694061213F1AA98061213F1B2
:101B5300EF99061213F1229A061213F1859A0612CF
:101B630013F1E59B061213F10D9C061213F1229C4F
:101B7300061213F1329C061213F1769C061213F12E
:101B8300D19C061213F1E19C061213F1EAD5071258
:101B930013F104D6071213F12CD6071213F145D60D
:101BA300071213F169D6071213F187D6071213F13F
:101BB3009ED6071213F1CCD6071213F1E7D60712FC
:101BC30013F1C8DC071213F1EFAA071213F1FFAAEE
:101BD300071213F104AC071213F136AC071213F119
:101BE3005CAC071213F17FAC071213F196AC07122A
:101BF30013F1D0AC071213F135AD071213F177AD22
:101C0300071213F1B6AD071213F1E7AD071213F183
:101C13001EAE071213F121F7041213F106F8041292
:101C230013F131F8041213F14EF8041213F15BF9B6
:101C3300041213F19FF9041213F146FA041213F17B
:101C430002FB041213F10DFC041213F144FD041200
:101C530013F1DD9A071213F1329B071213F1B29BB2
:101C6300071213F1C59B071213F1EC9B071213F133
:101C73008F9C071213F1709D071213F1BCAF06126C
:101C830013F1E7AF061213F1B2B0061213F1EFB07E
:101C9300061213F180B1061213F1FCB4061213F10C
:101CA3000FB7061213F136C8041213F176C80412E3
:101CB30013F177CA041213F177CD041213F199CEFD
:101CC300041213F103D2041213F177D2041213F1A5
:101CD30011D3041213F168D3041213F1D0D30412F5
:101CE30013F120D4041213F14ED4041213F151D47E
:101CF300041213F161D4041213F174D4041213F116
:101D0300BFD4041213F17CD6041213F1E1D60412EA
:101D130013F134D7041213F1D0D7041213F15CD8A2
:101D2300041213F15BDA041213F104DC041213F14D
:101D3300CBDD041213F1B7DE041213F163E00412D6
:101D430013F1EBFE011213F105FF011213F15BFF17
:101D5300011213F189FF011213F1A3FF011213F111
:101D6300BCFF011213F1E5FF011213F184D3061234
:101D730013F1B5D3061213F109D4061213F1D9D412
:101D8300061213F106D5061213F133D5061213F119
:101D930085D5061213F1AFD5061213F1D3D506126A
:101DA30013F1FBD5061213F17DD6061213F107D7F3
:101DB300061213F138D7061213F15FD7061213F187
:101DC300A5D7061213F1C3D7061213F1E7D70612EC
:101DD30013F107D8061213F13DD8061213F19CD85C
:101DE300061213F1BED8061213F11DD9061213F110
:101DF3002CD9061213F165D9061213F173F80512E3
:101E030013F1ADF8051213F1E8F9051213F114FB00
:101E1300051213F1BFFF051213F174D9061213F162
:101E2300AED9061213F155DA061213F11AD70712B7
:101E330013F18BD7071213F1EDD7071213F166E3F2
:101E4300051213F196E4051213F1ABE5051213F134
:101E5300EBE6051213F145E7051213F183E70512CB
:101E630013F191E7051213F1C1E7051213F152E8DB
:101E7300051213F1AEE9051213F1DAEA051213F1B3
:101E830074EC051213F1E8ED051213F1DCB107123E
:101E930013F13EB2071213F177B2071213F170B4C4
:101EA300071213F13CFA061213F17FFA061213F12B
:101EB300B5FA061213F1DCFB061213F170FD0612DC
:101EC30013F1D6FD061213F109FF061213F1119D4A
:101ED300061213F1229E061213F1989E061213F1B5
:101EE300919F061213F1DF9F061213F15AA30612F4
:101EF30013F13AA4061213F18FA4061213F16FA57E
:101F0300061213F141CF071213F17ECF071213F11B
:101F1300ADCF071213F1C1CF071213F12E9207129F
:101F230013F14093071213F12394071213F144940E
:101F3300071213F10D95071213F1AF95071213F161
:101F4300E095071213F16096071213F102C7061208
:101F530013F164C7061213F103C8061213F18EC9F5
:101F6300061213F18CCC061213F1A2CC061213F154
:101F7300A5D0071213F1C5D0071213F1D9D1071257
:101F830013F1DCD1071213F167D3071213F19DD3B9
:101F9300071213F1B7D3071213F1F9D3071213F191
:101FA30009D4071213F1A3D4071213F107C00612C1
:101FB30013F111C0061213F14BC0061213F1B4C092
:101FC300061213F1D1C0061213F173C1061213F1F5
:101FD3007CC1061213F1C1C1061213F1EAC1061244
:101FE30013F1F7C1061213F168C2061213F1F3C21B
:101FF300061213F141C3061213F17FC3061213F144
:10200300E4C3061213F107C4061213F17EC40612C9
:1020130013F1D5C4061213F110C5061213F145C509
:10202300061213F157C5061213F169C5061213F10F
:1020330088C5061213F191C5061213F14CC6061298
:1020430013F198C6061213F1D6C6061213F1A8FEB1
:10205300041213F1E8FF041213F19CDE071213F1CB
:1020630027B5071213F16BB5071213F1B3B50712B6
:1020730013F199B7071213F128B8071213F15EDBB6
:10208300071213F10080051213F12481051213F1D5
:102093005E81051213F10883051213F132830512D1
:1020A30013F1A785051213F1E785051213F17D8757
:1020B300051213F11A88051213F16C88051213F136
:1020C3000F89051213F14789051213F18989051246
:1020D30013F1F88A051213F1468C051213F1778E6A
:1020E300051213F1A58E051213F1CC8E051213F10F
:1020F300D58E051213F1258F051213F1B78F051233
:1021030013F1E692051213F16993051213F13FDE01
:10211300071213F155DE071213F1079F071213F18C
:102123001D9F071213F1C19F071213F100A007129D
:1021330013F11DA0071213F14EA0071213F19BA078
:10214300071213F1CEA0071213F109A1071213F11D
:10215300FEA2071213F164CD061213F16BCF061220
:1021630013F1AAD0061213F1C2D0061213F14E894D
:10217300071213F1948A071213F1FB8B071213F161
:1021830044F7021213F167F8021213F16EF9021207
:1021930013F1CEFA021213F1F0FB021213F1D1FC88
:1021A300021213F1BBC7071213F169C8071213F127
:1021B300B693051213F17B94051213F1889405125B
:1021C30013F13995051213F19895051213F1A6979A
:1021D300051213F11698051213F11B9A051213F148
:1021E300549A051213F1039D051213F12B9D051249
:1021F30013F1AD9D051213F1289E051213F1B29F41
:10220300051213F141A0051213F1BDA0051213F13C
:1022130014E5061213F13BE5061213F196E70612D5
:1022230013F1BDE7061213F112E8061213F144E9A4
:10223300061213F1C0E9061213F1C8BD071213F118
:10224300E0BD071213F12BBF071213F132BF0712C0
:1022530013F15BBF071213F123D9071213F182D9CC
:10226300071213F1C0D9071213F101DA071213F1A0
:10227300B5C1051213F11EC2051213F169C205128D
:1022830013F196C2051213F17BC4051213F15EC854
:10229300051213F1ECC9051213F1F7CA051213F174
:1022A3000DCC051213F1BDEA061213F1E3EA06128F
:1022B30013F123EC061213F118ED061213F13FED9F
:1022C300061213F1D8ED061213F12CEE061213F1D8
:1022D30047EF061213F1C3DA071213F10DDB0712EE
:1022E30013F15BDF061213F1B8DF061213F196E068
:1022F300061213F105E1061213F129E1061213F197
:1023030010E2061213F170E2061213F121E3061232
:1023130013F1AAE3061213F11BDE071213F12EDEEB
:10232300071213F1ADD4071213F1BCD4071213F142
:102333001CD5071213F15FDE071213F165DE0712D6
:1023430013F16BDE071213F10080041213F10C80FA
:10235300041213F16E80041213F17880041213F146
:102363000B81041213F14781041213F10382041247
:1023730013F11682041213F16682041213F1F5822B
:10238300041213F12B83041213F1AD83041213F11E
:102393005C85041213F13087041213F116880412BA
:1023A30013F16889041213F1BE8B041213F1278D04
:1023B300041213F1C48D041213F16C92041213F17D
:1023C3005A93041213F1F893041213F12494041290
:1023D30013F1C094041213F1D594041213F1F99478
:1023E300041213F15F95041213F17C95041213F197
:1023F300A695041213F12397041213F144970412C0
:1024030013F1CA97041213F17098041213F1B798D9
:10241300041213F12A99041213F1B699041213F159
:102423001A9A041213F17A9A041213F1109B0412EC
:1024330013F18B9B041213F1BE9B041213F1209C26
:10244300041213F1829D041213F1F29D041213F18D
:10245300A19E041213F1F79F041213F18FA004122B
:1024630013F1FBA0041213F13EA3041213F1CAA447
:10247300041213F1F5A4041213F1DBA6041213F1F1
:1024830071A8041213F17AA9041213F1DBB3051234
:1024930013F192B4051213F199B5051213F117B69E
:1024A300051213F159B7051213F17AB7051213F197
:1024B30032B8051213F1DDB8051213F1BDBC0512D4
:1024C30013F1D9BE051213F140C0051213F10CDD4F
:1024D300071213F1BDD6031213F118D7031213F128
:1024E300A2D7031213F113D9031213F1EBD9031279
:1024F30013F1D4DA031213F1EBDA031213F13DDB18
:10250300031213F1A1DB031213F1E2DB031213F144
:10251300F5DB031213F14BDC031213F1A4DC0312FA
:1025230013F1BCDC031213F149DF031213F1DEDFF5
:10253300031213F108E0031213F151E0031213F134
:1025430041E2031213F1ABE2031213F17FE303122F
:1025530013F1C2E3031213F1DCE3031213F123E4D7
:10256300031213F145E4031213F1EFE4031213F121
:10257300E7E5031213F141E6031213F192E60312A6
:1025830013F12AE8031213F1A2EA031213F120EB69
:10259300031213F14DEB031213F1C0EB031213F10A
:1025A300E3EB031213F15DEC031213F128ED0312B5
:1025B30013F165ED031213F1C7ED031213F188EE66
:1025C300031213F18BEE031213F195EE031213F1C1
:1025D3009FEE031213F1B2EE031213F124EF031271
:1025E30013F14DEF031213F160EF031213F18CEFAC
:1025F300031213F1B3EF031213F1D7EF031213F125
:1026030012F0031213F184F0031213F1ACF003126E
:1026130013F1EDF0031213F122F1031213F142F15E
:10262300031213F17FF1031213F1B6F1031213F145
:10263300B6F2031213F1E9F3031213F1FFF30312DA
:1026430013F1D6DB071213F1EEDB071213F1F2FFDE
:10265300021213F107B9061213F156B9061213F158
:10266300F6BA061213F1B1BC061213F1F3BC06124B
:1026730013F1DCBD061213F1E6BE061213F108BF17
:10268300061213F152BF061213F1D3BF061213F150
:102693002ED8021213F151D8021213F144D90212A7
:1026A30013F18DD9021213F1E5D9021213F143DAB2
:1026B300021213F18FDA021213F105DB021213F186
:1026C30091DB021213F140A9061213F149DC021245
:1026D30013F129E0021213F178E2021213F1ABE2D3
:1026E300021213F122E3021213F153E6021213F161
:1026F300C8E6021213F153E8021213F160E9021261
:1027030013F176EA021213F1ECEA021213F1B3EBBE
:10271300021213F11CEC021213F11FEC021213F15B
:10272300FCEC021213F138EE021213F1F3EF021272
:1027330013F19FF1021213F191F2021213F121F33B
:10274300021213F175F4021213F197F5021213F149
:10275300EEF5021213F18BF6021213F1AAE1041241
:1027630013F179D0051213F1B4E2041213F15BE310
:10277300041213F1BAE3041213F166E4041213F121
:102783000FE7041213F135E8041213F1B9E8041248
:1027930013F196EA041213F13BEB041213F1DEEB8F
:1027A300041213F13DEC041213F1F6EC041213F1CD
:1027B30075EE041213F132F0041213F1B3F10412A3
:1027C30013F10DF3041213F11DF4041213F1C3F406
:1027D300041213F1E2F5041213F1B5AD041213F16F
:1027E3002DAE041213F175AE041213F1B9AE041237
:1027F30013F102AF041213F14CAF041213F181AFC2
:10280300041213F1FFAF041213F159B0041213F1C0
:10281300B2B1041213F131B2041213F148B304122A
:1028230013F16AB3041213F176B4041213F187B4EB
:10283300041213F19FB4041213F1BFB5041213F180
:10284300DCB5041213F1AFB6041213F1D3B60412BC
:1028530013F1EAB6041213F10BB7041213F12DB7F7
:10286300041213F11FB8041213F177B8041213F111
:10287300EDB9041213F14BBA041213F16ABA04123C
:1028830013F19CBB041213F119BC041213F186BC9F
:10289300041213F1C6BC041213F128BD041213F180
:1028A300D8BD041213F1AABF041213F195C0041288
:1028B30013F18FC1041213F195C2041213F1B1C3C2
:1028C300041213F1BFC3041213F198C4041213F1D9
:1028D30038C5041213F17CC5041213F191C5041217
:1028E30013F1A2C6041213F145C7041213F19DC7D5
:1028F300041213F131B8071213F16AB9071213F175
:1029030027BA071213F18BBA071213F10BA307129D
:1029130013F129A3071213F16DA3071213F193A364
:10292300071213F1B9A3071213F1D1A3071213F17D
:10293300E9A3071213F101A4071213F164A4071208
:1029430013F1A6A4071213F1C8A5071213F1D1A519
:10295300071213F1DAA5071213F1E3A5071213F116
:10296300EDA5071213F10EA6071213F1D48D07126A
:1029730013F1B491071213F1C291071213F1C79126
:10298300071213F13BCC071213F18EFF021213F15E
:10299300CADD071213F1AECD071213F17EDE071263
:1029A30013F10080021213F15780021213F1C38056
:1029B300021213F14F81021213F10582021213F175
:1029C3004D82021213F16682021213F189820212FE
:1029D30013F1AB82021213F1E982021213F138836D
:1029E300021213F16383021213F1C183021213F172
:1029F3006884021213F11085021213F18C850212FE
:102A030013F15986021213F1A086021213F1EC8618
:102A1300021213F17487021213F1AD87021213F13C
:102A23000388021213F11F88021213F14E88021257
:102A330013F15A8A021213F1888B021213F1B48B29
:102A4300021213F1E88B021213F1098C021213F133
:102A5300188C021213F1238C021213F1D28C02127E
:102A630013F1428D021213F1CD8D021213F1D58DA4
:102A7300021213F1428E021213F17E8E021213F12F
:102A8300448F021213F11790021213F16C90021289
:102A930013F10B91021213F16591021213F1AA9132
:102AA300021213F14394021213F18695021213F1E9
:102AB3007098021213F15499021213F1389A021208
:102AC30013F1499A021213F1BB9A021213F1529BAA
:102AD300021213F1B79B021213F1A79C021213F116
:102AE300CC9C021213F1EA9C021213F1069D02120E
:102AF30013F1799D021213F1889D021213F1109EB6
:102B0300021213F10D9F021213F11A9F021213F115
:102B1300239F021213F105A1021213F127A202123D
:102B230013F137A2021213F165A3021213F1E4A306
:102B3300021213F1FFA4021213F13BA5021213F1C7
:102B430015A7021213F1D2AA021213F1E6AA021276
:102B530013F1F0AA021213F1FAAA021213F104AB51
:102B6300021213F11DAB021213F127AB021213F180
:102B730094AB021213F19FAB021213F1C7AB021213
:102B830013F1D2AB021213F137AC021213F142ACC0
:102B9300021213F166AC021213F18AAC021213F1A2
:102BA300FCAC021213F145AD021213F161AD021236
:102BB30013F1D2AD021213F11EAE021213F167AE7E
:102BC300021213F1A5AE021213F126AF021213F192
:102BD300CDAF021213F19CB1021213F101B2021232
:102BE30013F12FB3021213F155B3021213F19DB473
:102BF300021213F1D7B7021213F1D5B9021213F16E
:102C0300A0BB021213F139BC021213F13ABE021235
:102C130013F1EFBE021213F128BF021213F18EBF9C
:102C2300021213F198BF021213F1C1C1021213F180
:102C330000C3021213F157C3021213F102C40212AA
:102C430013F1B2C5021213F1FFC6021213F11FC72B
:102C5300021213F174C7021213F175C8021213F1B1
:102C63009DC8021213F1FCC8021213F1F4C9021237
:102C730013F16BCA021213F17ECB021213F1ECCBE8
:102C8300021213F1EBCC021213F145CF021213F12E
:102C93006ECF021213F1D4D0021213F156D20212E4
:102CA30013F1ADD2021213F15BD3021213F100D46C
:102CB300021213F159D4021213F117D5021213F1B0
:102CC300A9D5021213F108D6021213F14AD6021241
:102CD30013F17BD6021213F1D2D7021213F1008043
:102CE300031213F13280031213F16B80031213F1F9
:102CF3002982031213F1FF82031213F15E8303127D
:102D030013F17484031213F1C084031213F14E8779
:102D1300031213F1288A031213F16F8B031213F1B9
:102D2300078C031213F1138C031213F15C8C03123F
:102D330013F19E8D031213F1948E031213F1BE8EC1
:102D4300031213F1148F031213F16D8F031213F196
:102D5300E08F031213F11692031213F198930312E7
:102D630013F18394031213F1CD95031213F1059814
:102D7300031213F1029B031213F1119B031213F1BC
:102D8300A59B031213F1509C031213F1939C03129E
:102D930013F1DC9C031213F12C9D031213F1909D8C
:102DA300031213F1029E031213F11E9E031213F179
:102DB3004D9E031213F18C9E031213F1879F03128E
:102DC30013F136A0031213F1B3A2031213F1E5A317
:102DD300031213F1BDA4031213F13FA5031213F160
:102DE30074A9031213F1A3A9031213F1FEA9031289
:102DF30013F131AA031213F1A9AA031213F1DCAAE6
:102E0300031213F13DAB031213F18DAB031213F154
:102E13005AAC031213F113AD031213F1D7AD03121E
:102E230013F151B0031213F1B3B1031213F104B34D
:102E3300031213F128B4031213F12BB4031213F189
:102E43005AB4031213F152B6031213F111B703125A
:102E530013F140B7031213F15EB8031213F126B94D
:102E6300031213F1E4BA031213F116BB031213F1A5
:102E730058BB031213F157BC031213F1CABC03125C
:102E830013F1F3BE031213F152BF031213F1A6BFE2
:102E9300031213F1D5C1031213F1B8C2031213F1D4
:102EA30074C3031213F188C3031213F19CC30312F7
:102EB30013F1C9C3031213F1F9C3031213F1B4C518
:102EC300031213F1C6C6031213F11BC7031213F146
:102ED30064C7031213F18BC7031213F153C8031210
:102EE30013F1F9C8031213F17FCA031213F1C6CA0F
:102EF300031213F138CB031213F18DCC031213F128
:102F030036CD031213F16ACD031213F182CD0312EE
:102F130013F125CE031213F1A1D0031213F149D2F9
:102F2300031213F167D2031213F185D2031213F1C3
:102F330051D3031213F19FD6031213F1D884011254
:102F430013F11085011213F1108A011213F1568A3D
:102F5300011213F18C8B011213F1F18B011213F196
:102F6300668D011213F17090011213F19991011200
:102F730013F1AC9B011213F13C9C011213F1269F38
:102F8300011213F133A0011213F196A0011213F1F0
:102F9300DEA1011213F14CA4011213F1DEA50112FB
:102FA30013F16BA6011213F18AA7011213F117A8EB
:102FB300011213F121A8011213F149A8011213F10F
:102FC300E9A8011213F1D4A9011213F1A1AA011264
:102FD30013F1BEAA011213F1E7AA011213F114AB04
:102FE300011213F15BAD011213F12AAE011213F1B9
:102FF30069AE011213F1EBAE011213F18CAF0112A2
:1030030013F1BEAF011213F105B0011213F138B081
:10301300011213F17CB0011213F1CBB0011213F1C1
:10302300D0B0011213F12CB1011213F170B10112DE
:1030330013F14AB2011213F1AFB2011213F115B336
:10304300011213F190B3011213F1F8B6011213F147
:10305300FBB7011213F179B9011213F18FBC0112FD
:1030630013F131BD011213F17ABF011213F135C00F
:10307300011213F174C0011213F14CC2011213F1C6
:1030830069C2011213F172C2011213F17BC2011260
:1030930013F186C2011213F1A5C2011213F149C43F
:1030A300011213F1A6C4011213F1B0C4011213F1FA
:1030B300BAC4011213F119C5011213F163C5011248
:1030C30013F164C6011213F1BBC6011213F1CCC78D
:1030D300011213F115C8011213F1CFC8011213F134
:1030E300E6C9011213F1BBCA011213F102CC01129A
:1030F30013F106CD011213F1FFCD011213F117CE17
:10310300011213F14ECE011213F158CE011213F135
:1031130062CE011213F16DCE011213F18BCE0112A7
:1031230013F1D3CE011213F131CF011213F158CFA2
:10313300011213F16ACF011213F11FD0011213F11F
:1031430058D0011213F17AD1011213F1CDD101122A
:1031530013F1B3D2011213F1DAD2011213F14AD3EC
:10316300011213F1C6D3011213F122D5011213F187
:1031730049D6011213F10BD7011213F1D9D701125A
:1031830013F197D8011213F17FD9011213F129DA40
:10319300011213F191DA011213F146DB011213F15B
:1031A300A2DB011213F1FADB011213F1C0DC0112ED
:1031B30013F1E3DC011213F19EDD011213F1C0DD03
:1031C300011213F121DE011213F151E0011213F187
:1031D3004AE1011213F1F6E1011213F117E40112AE
:1031E30013F160E4011213F1ABE4011213F107E5EB
:1031F300011213F165E5011213F189E5011213F1CF
:10320300ADE5011213F1E2E5011213F10AE6011231
:1032130013F14FE6011213F1A3E6011213F1FCE6D9
:10322300011213F1F6E7011213F194E9011213F1FC
:10323300D9E9011213F102EA011213F18BEA011227
:1032430013F1FEEA011213F10CEB011213F130EB4F
:10325300011213F186EB011213F1A1EB011213F129
:103263005CEC011213F188EC011213F1CBEC0112A7
:1032730013F12EED011213F13CEF011213F168EF7C
:10328300011213F123F0011213F107F1011213F1EB
:103293009BF1011213F1F3ED051213F12BEE05125D
:1032A30013F14CEE051213F18EEE051213F1F2EE4B
:1032B300051213F1FCEE051213F10CEF051213F1D5
:1032C30043EF051213F1ECF2051213F1B4F40512F6
:1032D30013F198F6051213F13AF7051213F1C4F737
:1032E300051213F11E3F001213F1C73F001213F131
:1032F300A640001213F1B241001213F1D2410012A1
:1033030013F1F442001213F1A444001213F1114516
:10331300001213F1E245001213F1E846001213F113
:103323006047001213F19B47001213F1F447001298
:1033330013F12F48001213F17848001213F10C49CE
:10334300001213F1A249001213F1774A001213F18C
:103353004A4B001213F1D84B001213F1FE4B00122B
:1033630013F12B4C001213F15C4C001213F1294D95
:10337300001213F1394D001213F18C4D001213F1A9
:10338300994D001213F1A64D001213F1AF4D001227
:1033930013F1134E001213F1714E001213F1BC4ED0
:1033A300001213F1D74E001213F1FE4E001213F167
:1033B3001B4F001213F1274F001213F1B8500012E4
:1033C30013F1D150001213F14D51001213F160515A
:1033D300001213F17051001213F11452001213F181
:1033E3008053001213F19354001213F1335500125A
:1033F30013F13D55001213F1BC55001213F1CD55D5
:10340300001213F10C56001213F13A56001213F185
:103413000757001213F15E57001213F1975700126A
:1034230013F1ED57001213F10B58001213F1595811
:10343300001213F12459001213F17259001213F1FF
:10344300BF59001213F1425A001213F16C5A0012C1
:1034530013F1A25A001213F1B15A001213F1105BC7
:10346300001213F1885B001213F1C95B001213F110
:10347300195C001213F1445C001213F15E5C00123C
:1034830013F1785C001213F14D5D001213F1575DD7
:10349300001213F1925D001213F1A25D001213F1F9
:1034A300F35D001213F1075E001213F1295F00129E
:1034B30013F13E5F001213F1D15F001213F1456067
:1034C300001213F1EA60001213F1F560001213F118
:1034D3005862001213F17462001213F1C0620012F9
:1034E30013F12E63001213F16063001213F17A6378
:1034F300001213F1DA63001213F17964001213F16D
:10350300C464001213F11767001213F1AF670012BE
:1035130013F12668001213F1836A001213F19B6AF8
:10352300001213F19E6A001213F1AA6A001213F13A
:10353300BE6A001213F1C66A001213F1FD6A00128B
:1035430013F1F16B001213F17B6C001213F1FD6C9C
:10355300001213F17D6D001213F1546E001213F17A
:10356300766E001213F10F6F001213F16C6F0012DD
:1035730013F16F6F001213F1DE6F001213F12A7152
:10358300001213F13D72001213F1C872001213F10D
:10359300DB73001213F1A274001213F1D37400123F
:1035A30013F1F974001213F10275001213F131755E
:1035B300001213F1E175001213F19176001213F169
:1035C3000477001213F1A777001213F11A7800128F
:1035D30013F15978001213F1A278001213F141A8E4
:1035E300061213F1F8A7061213F16FA6061213F1D0
:1035F3002FB2051213F1B6B0051213F1A3AF0512E2
:1036030013F17DAD051213F126AD051213F169AB6C
:10361300051213F1E0A8051213F16CA8051213F1BA
:103623004DA7051213F1A5CF051213F1A5CE05126F
:1036330013F122A6051213F1CDA5051213F1C6CD80
:10364300051213F1CFF4061213F15B82071213F183
:103653005881071213F1E080071213F1008007125B
:1036630013F112FE011213F138FD011213F16EFC76
:10367300011213F1DDFA011213F1A6FA011213F18B
:1036830078FA011213F12CFA011213F195F90112D0
:1036930013F105F9011213F1DFF8011213F194F894
:1036A300011213F15EF8011213F1E1F7011213F1A4
:1036B3007CF7011213F12BF7011213F153F60112E8
:1036C30013F1C3F5011213F177F5011213F1F2F4BB
:1036D300011213F1ADF4011213F191F4011213F17C
:1036E30039F3011213F132F4061213F10BF3011241
:1036F30013F1F8F0061213F175F0061213F122F02C
:10370300061213F16BDD071213F150DD071213F1EB
:10371300F6DD071213F13FAE061213F1D9AC061210
:1037230013F1D8F2011213F15CF2011213F1E998CB
:10373300071213F1BE97071213F16FAC061213F1C0
:10374300F396071213F18896071213F11BE3051280
:1037530013F1C2E2051213F10DAC061213F18DE25F
:10376300051213F14AE2041213F158E2051213F1A0
:1037730024E2051213F1B7E1051213F19FE10512DB
:1037830013F17AE1051213F14BDE051213F11EDC7E
:10379300051213F11EDA051213F1A4D9051213F160
:1037A30055D9051213F10FD9051213F1B1D805122A
:1037B30013F16390061213F1D18F061213F186AA47
:1037C300061213F1E28E061213F1488D061213F15D
:1037D300088B061213F1418A061213F106DC02006C
:1037E300000080FB8F000100F41B87000100C21E54
:1037F30035000400861E250002008A1E26000200F2
:103803008C1E270002008E1E28000100981E29002E
:103813000100991E840004009A1E860001009E1E6A
:103823002A0001009F1E2B000100A01E2C00010096
:10383300A41E2D000800DC1B2E000100A51E2F0076
:103843000100A61E30000100A71E31000100A81EC2
:1038530032000100E41B33000100E51B34000100CA
:10386300A91E36000100E61B38000100AA1E39001C
:103873000100A31E83000200C01E63000100F11BB0
:1038830064000100A11E65000100A21E6D0001007D
:10389300F21B71000800D41B66000100BF1E430029
:1038A3000100B01E44000200B11E45000100B31E1A
:1038B30046000200B41E47000800E91B480001004F
:1038C300B61E4B000100B71E04000100C31EA10079
:1038D3000100C61E37000100C51E88000100C41E7A
:1038E3003C000100E71B3D000100AB1E4900020044
:1038F300B81E67000100F31B4D000200BA1E4E0004
:103903000100BC1E4F000200BD1E3E000100AF1EA1
:1039130051000100AC1E52000100AD1E5300010016
:10392300AE1E54000100E81B00000000000000016F
:103933003636010100010201000103010001040107
:10394300060605020000070100340801000F090400
:1039530001010D0100FF0E0800001702000019010C
:1039630000FF1A0100011B0100FE1C0100081D02DB
:1039730000001F01000120010001210200002301BA
:10398300000F24020000260100012701000828027D
:1039930000FF2A0100072B0102402C0100002D012A
:1039A30000012E0100012F0100FF30010B1D310822
:1039B30000003A0100083B01000F3C0100013D01FA
:1039C30000FF3E04000042040000460400004A04D5
:1039D30000004E04000052040000560400005A0484
:1039E3000000000000002001D3840000010020013A
:1039F300D384000002002001D684000003002001CC
:103A0300D4840000040042016D80000005004201DF
:103A13007E80000006004201A08000000700200114
:103A2300AB800000100042018F80000011002001D4
:103A33007F08000000404201A08006000000101132
:103A4300000007000000303300000700100030338F
:103A5300000007000140203300000700024020332C
:103A6300000008000000203300000C00550039332B
:103A730000000C001C00423300001200550020011E
:103A8300000014000E004222000001037103010331
:103A930001030103010301032203020301031003D2
:103AA30000030003000300030003000300034203B9
:103AB3000003240306030003000304031203250386
:103AC3002303250323030403040300030003000368
:103AD30044030003000323030003650321003503AC
:103AE3008103000305030003000300030003250310
:103AF30023030101710101010101110101013101DF
:103B0300010101018001100161013B001400630107
:103B130073017201620143010001130106013D01BA
:103B2300350004011201000100010001000104013C
:103B33000401330133013C01440132013600000129
:103B430000016501000135008101000105018201C9
:103B5300830100010304710402046004110470046E
:103B630002040204010402041004610400041404A6
:103B7300630473047204620443040004130406041C
:103B830000040004040412040004000400040004FC
:103B9300510464000004000400044404000400040D
:103BA3000004000465040004350481046400050472
:103BB3000004830400040302710230016002110255
:103BC30070020102020202028002100261023A0044
:103BD3004100630273027202620243020002130293
:103BE3003800000200020402120200020002000276
:103BF300000204020402370037003C0244020002C0
:103C0300390000020002650200023502810200024F
:103C1300050282028302000203007100300160008A
:103C23001100700031022003500480001000610075
:103C33000000140063007300720062004300000080
:103C43001300060000000000040012000000000042
:103C53000000000004000400370037003C02440069
:103C63000000000000000000650000003500810036
:103C7300000005000000830000003600010006007C
:103C830000000F0000000000000000000000000022
:103C930003FFFF00000403FFFF0000FFFF0FF40119
:103CA3000005C4040320000100000B000000000015
:103CB30000000003010F00000000000000000000EE
:103CC30000000000000000000000000000000000F1
:103CD3000000000000000000382474243E24662302
:103CE30044247A24442486244A24662344247A24BC
:103CF30050246623562466235C24662362246623A9
:103D0300682466236E246623000000000000000080
:103D130000000000000000000000000000000000A0
:103D23000000000000000000000000000000000090
:103D33000000000000007A27130026271F002C270D
:103D43001F80322701007A270200AE260300B42623
:103D53000400BA260500C0260600CC263000EA2659
:103D63003100E4263200F6263300FC263500022714
:103D73003400082736000E2711001A2714002027C5
:103D83001500DE26FFFF00000A000000020000000D
:103D930004000000080000001000000020000000E4
:103DA300400000008000000000010000000200004D
:103DB30000040000000800000010000000200000C4
:103DC3000040000001782F06A22F089C2F0BBA2F6A
:103DD30010902C027E2F05902F07842F0C602F0D3F
:103DE3006C2F648C2AFF000007ECFDFDFDECDCDC8E
:103DF300CCBCACAC9C9C8C7C7C6C6C5C5C5C4C4CA0
:103E03003C3C2C2C1C1C03EAF5E5D5D5C5B5A59582
:103E1300958585757565655555454535352525154F
:103E2300150500160F00000B150B020002220F33BD
:103E330000000E5A6967426565416C6C69616E6387
:103E430065303901030507090B0D0F00020406084D
:103E53000A0C0D000119161816161823030030302A
:103E630017181921301B1D1F303030161819202345
:103E73001A1C1E3000034A49434E181A2505020036
:103E8300393D3F373C3C362C442D0C0E020B040BC2
:103E93000A0708000F02040201010101090200BE22
:103EA300040AE803000000000E00E80300007F009E
:103EB3001E050300030400100A0C10080C28090453
:103EC300040903010C0508151508FFE00412474E09
:103ED300A2E792AF22E4F0A3F0A3F022A3123ED80C
:103EE300A3F0227F0C02115EE0F508E4F509F50A60
:103EF300F50B227401F0900534E0640F227409126B
:103F030014217F0402115EA3A3E024F5C3941322BA
:103F1300900554126A3E7A147B0022C082C08390BB
:103F23001D107444F0A37433F0A37456F0A37433D8
:103F3300F0901D14742CF0A37433F0A37426F0A333
:103F43007433F0A37462F0A37433F0A37468F0A322
:103F53007433F0A3745CF0A37433F0A37414F0A36C
:103F63007433F0901D207438F0A37433F0A3743EBF
:103F7300F0A37433F0A37432F0A37433F0A3746E1C
:103F8300F0A37433F0901D31125FCB6006126235DB
:103F9300122072901D2E1256F77408F0A3E4F0A3BA
:103FA300F0901DD1F0901D33F07C0BFDF97A347B3A
:103FB3001D121FBE7C0B7D0079007A3F7B1D121FF3
:103FC300BE02570074F7120E0E74F7121504EAFEC0
:103FD300EBFF12551E74051240947403F0EE240295
:103FE300FAE43F12406E242DFCE43FFD8C828D8366
:103FF3001241AC12407D60081248F674FFF0A3F042
:10400300EE242BE43F1C1CFD8C828D83A3E0C0E0D7
:104013008A828B8312552FD0E012407D8882898358
:10402300125D27240312680812226A740812179B70
:104033007403F090054912122574021214E67903F1
:10404300EEFAEFFB1235007402121421E9F5087041
:1040530007EEFAEFFB1233E6A9087409024906F5E5
:1040630082E43FF583127473125D1CFB8A828B8397
:1040730012408CE8F0A3E9F0EE22126A5C12408C45
:10408300E8F0A3E9126FD8E0221241778A828B838A
:1040930022F0A3E4F012409C22EE240DF582E43FCB
:1040A300F5832274F1120E0EEAFEEBFF8C088D09E4
:1040B300890A1241818A828B83124177740F121706
:1040C3009B12419AE824FF18E934FFF98882898317
:1040D300E50A12418C90054E12418990054D12411B
:1040E30089741112179B12419AEE2404FCE43FFDDC
:1040F300880B8A828B83E0F50C8C828D83E0250C00
:10410300C3950B126A58E8F0A3E912548BA3A3A337
:10411300A3A3A3A3A3E0640370081257E7F0A3E4E7
:10412300800312448D1240977409F0750C34750D99
:104133001D750E00780C12140A124481121FB274FA
:1041430003121421750CFF750DFF780C12140EACBD
:1041530008AD097903EEFAEFFB123500740212146D
:1041630021E9F5087007EEFAEFFB1233E6A9087FA1
:104173000702115EE024FFF8A3E034FFF922EE24E6
:1041830002FAE43FFB221241AC12419022F0E824F0
:10419300FF18E934FFF922E0F50CA31241AC1241F8
:1041A3009088828983E50CF022E08882898322C08B
:1041B30082C083901D50E0C39408400474078001BB
:1041C300E08A828B83F033333354F8F90257007457
:1041D300F0120E0EEAFEEBFF890C8C0E8D0F750AA2
:1041E30000A2AFE433F50BC2AF901D4A803F1242E9
:1041F300BA50371242CB64037030EE24F9FEEF3429
:10420300FFFF850882850983A3A3E02405FCA3E0BF
:104213003400FDEEFAEFFB12226AEE24FF1EEF34A8
:10422300FFFF7410250AF50A150C12545812746F07
:10423300E50C6006E508450970B4E50BA2E092AF12
:10424300A2AFE433F50BC2AF901D4A802C2402FACF
:10425300E43509FB8A828B83126A472406F582E4DC
:1042630038F5831242D88A828B831242C0A3A312E9
:1042730042D8050A150C12545812546D602212428A
:10428300CB640270F11242BAE50840C11245BBA2E9
:10429300E550E3850E82850F837401F0E50C70D63B
:1042A300E50BA2E092AF8E828F83E50AF0EE24FF46
:1042B300FAEF34FFFB80351245C6A2E6221242C450
:1042C30022126E3CA3A3A322850882850983126E62
:1042D3003612647022E08E828F83F0EE24FF1EEF8D
:1042E30034FFFF221235CC74041214217F0802110B
:1042F3005E74EC120E0E74F512150489138A128B78
:104303000F851882851983E4F0041214DE1232F645
:10431300E9F8900533E0292434F508FA7B00121FED
:10432300D08A0A8B0BAE0AAF0BEE4F7003024475B3
:10433300EE2402F50AE43FF50BA808EE28F8E43F63
:10434300F9850A82850B831240762404F510E43F35
:10435300F511851082F583E4F0900533E0FCF8C392
:10436300E498F895E0F9850A82850B83E028F5083F
:10437300A3E039F509900531126700750E00780C3A
:1043830012140A7D00AA08AB09121FB27403121497
:1043930021AC18AD19740112179BE0F9E50824FF4D
:1043A300FAE50934FFFB1232FC8A828B83E4F0EADC
:1043B30024FFF508EB34FFF509E50FC454F0F99039
:1043C3001DD2E0C4333354C0F890052DE0A2E0E4DD
:1043D3003313134849440F124495E512C454F0456E
:1043E30013850882850983F0A808850A82850B83D3
:1043F300E0FA851082851183E02AC398F0850A824A
:10440300850B83E8F0A3E509F012448D124097E48D
:10441300F0740A12179BE4F075083F75091DF50A3D
:10442300780812140A124481121FB2740312142161
:10443300851882851983E06009EE240E1255B44471
:1044430008F01234E8E9F9E4F508F50978081214DC
:104453000E74041214E6EEFAEFFB12350074021226
:104463001421E97006EEFAEFFB800BEEFAEFFB1274
:104473001FD67A007B00740B121421023EE67C0BDC
:104483007D00EE2418FAE43FFB22125522E4F0A348
:1044930022E085088285098312449F22F01266D4A4
:1044A3002274F3120E0E8A0A8B0BA2AFE433F50CBF
:1044B300C2AF750800750900901D4A802C1246E2B0
:1044C3005024850A82850B83A3A312789C8E828F46
:1044D30083A3A31262381234EEE9600A124508C2BC
:1044E300E6F08E088F091246D712499070CFE5087F
:1044F300450960061245C2D2E6F0E50CA2E092AF90
:104503007F0502115E12450C221266EDE02274F063
:10451300120E0EEAFEEBFF8C0C8D0D750E00A2AF92
:10452300E433F50FC2AF750800750900901D4A808A
:1045330020850A08850B091245C2D2E4F0E508126A
:1045430045BBD2E7F0E50A24FBF582E50B34FFF522
:1045530083E0F50AA3E0F50BE50A450B6043E50AA2
:10456300125343350BF583E0A2E750D9850A8285C0
:104573000B83A3A3121225AC0CAD0DEEFAEFFB12C5
:1045830034F47402121421E960BBE508450960A103
:10459300E508240D1245CE640170061245D7D2E416
:1045A300F0E50FA2E092AFE508450960061233E09B
:1045B300750E01A90E0242EF12536D1245D122125C
:1045C30045C622E50824111245CE22F582E43509B9
:1045D300F583E022850882850983126E36E0227412
:1045E300F2120E0E74FE121504750C00750D008583
:1045F3001882851983E4F0A3F0A2AF33F50AC2AFA2
:10460300901D4AE0FEA3E0FF8035EE24FBF582EF28
:1046130034FF12746D780C12140EEEFCEFFD7A4A1F
:104623007B1D1220067402121421EEFCEFFDAA1862
:10463300AB19121FF4AE08AF09901D50E014F0EE51
:104643004F60271246E2501DEE240BF8E43FF98831
:10465300828983E024FFF0A3E034FFF0888289831A
:10466300125FCB60A51246D38099E50AA2E092AF10
:10467300901D50E06031900534E0640F6006901D9A
:10468300D1E070237A287B1D1235D89084B712129B
:10469300217A287B1D1235CC7404121421800874EE
:1046A300F012591E1233D4AA18AB19121FFA8A0A30
:1046B3008B0BAE0AAF0BEE4F601312330812450893
:1046C300A2E28E828F83A350D674E980D4024998E4
:1046D3008E0C8F0DEE24FBF582EF34FFF58322124F
:1046E300450CA2E72274F7120E0EEAFEEBFF12331B
:1046F3000812552C120FDDE96401900550700AE091
:104703002401F8A3E034008004E0F8A3E0F9125B8D
:104713007A125F23901D50E07021900534E0640FFE
:1047230070197A287B1D1235D89084B71212217A1A
:10473300287B1D1235CC7404121421A9A8C2AF9092
:104743001D50E00412474EA2E7800DF0E9A2E7E412
:1047530033F8E922E508A2E092AF0259BA74F712DE
:104763000E0EEAFEEBFF124795F0123308EEFCEF54
:10477300FD7A4A7B1D122000A9A8C2AF901D5012DA
:104783003ECE900534E0640F700579081234A00220
:1047930059BA12450CC2E42274F7120E0E74EA12CF
:1047A3001504EAFEEBFF90052DE060408518828535
:1047B30019837401F012179BE412486D12179BAA18
:1047C30082AB8312226A8E828F831245DDC0E0742E
:1047D3000A12179BD0E0126A6D740B12179BAA8200
:1047E300AB83123518AA18AB1912296C7416024937
:1047F3000674F7120E0EEAFEEBFF1232EAE9F974C1
:10480300DC69601E74DD69601974E469601474F313
:1048130069600F74DE69600A74DF69600574DB69BF
:104823007007EEFAEFFB1234A60259BA74F7120EB0
:104833000E74EB121504EAFEEBFF851882851983CB
:10484300740612486D12179BAA82AB8312226A1256
:104853006A72740A12179BAA82AB83123518AA18BC
:10486300AB1912296C7415024906F0EE2413FCE40B
:104873003FFD74022274F7120E0E74F7121504EA48
:10488300FEEBFFEE242D1255B46065125145AA18B4
:10489300AB1912226A740812179B7403F09005492E
:1048A3001212251248F612122590055CE0F97404E1
:1048B3001214E6EEFAEFFB1232F07404121421E93B
:1048C300F974DC69602374DD69601E74E46960193E
:1048D30074F369601474DE69600F74DF69600A74CD
:1048E300E869600574DB697007EEFAEFFB1234A622
:1048F30002405DEE1248FB22242BF582E43FF58350
:104903002274031214210259BA74F2120E0E8A0889
:104913008B09750C00750D00750AE7A2AFE433F53A
:104923000BC2AF901D4A80031246D31249906035E3
:104933001246E250F31255B1640170ECEE242FF5E8
:1049430082E43F124B3FE06870DE780C12140EEEE7
:10495300FCEFFD7A4A7B1D1220067402121421908B
:104963001D50E014F0E50BA2E092AFEE4F6013EEA2
:10497300FAEFFB12330879F0EEFAEFFB1234A67567
:104983000A00A90AAA08AB091234A6800DE0FEA307
:10499300E0FFEE4F2274021214217F0602115E74AF
:1049A300F4120E0E74F7121504EAFEEBFF8E828FDB
:1049B30083A3E064F37003024A4C8E828F83A3E0E7
:1049C30064DF7003024A4C8E828F83A3E064E86045
:1049D300788E828F83A3E064DB606E12334AE9F53D
:1049E30008705EEE240E1255B46056124A56123306
:1049F30092EA4B604C740812179B124A60121225FC
:104A03007508FF7509FF780812140E8E828F83A331
:104A1300A3A3A3A3A3A3A3E0F974041214E612327D
:104A2300F07404121421E9F50874F3650860127434
:104A3300DF6508600C74E86508600674DB65087060
:104A43000F8E828F83A3E508F0EEFAEFFB12335645
:104A5300023F00EE240FFAE43FFB790922740212AD
:104A6300723574FFF0A3124A6D22124A7122125D4D
:104A730030A3A32274F5120E0E8A088B097E008AD6
:104A8300828B83A3A3A3A3A3A3123F0A40027EE8BE
:104A93008A828B83A3A3A3A3A3A3A3A3A3A3E0C3F8
:104AA300941040047EE880138A828B83A3A3A3A37C
:104AB300A3A3A3A3A3A3E0640F600A901DAEE054D5
:104AC3000870027EE8EA240BF582E43509124B3FB5
:104AD300A3A3A3A3A3A3A3A3E0C398500CEA240B0B
:104AE3001245CE640F60027EE890054DE0F470033A
:104AF300A3E0F470027EEC7A237B0012206C901DFD
:104B030031126248901D31125FCB6029850882857E
:104B13000983A3A3A982AA8389088A09750A00784D
:104B23000812140A7C237D00126235121FB274032B
:104B330012142180027E1AEEF90273D6F583E0F88F
:104B43008A828B83A3A32274F5120E0EEAFEEBFF77
:104B53008E828F83A3A3A3A3A3A3A3A3E09005346F
:104B630012711890054F1270FE90052F12711D904F
:104B73001DD2F0F9121AC6901DD2E06018EE24047B
:104B8300FAE43FFB7950121AAEEE2406FAE43FFB37
:104B930079E1121AAE901DD1123EF66004740180C1
:104BA300027400901D3312710412140A7C0B7D00F1
:104BB3007A347B1D121FB27403121421EE2418F5EC
:104BC30008E43FF509780812140A7C0B7D007A3F4C
:104BD3007B1D0273CE74F7120E0EEAFEEBFF8E827C
:104BE3008F83A3E070061262351233508E828F8357
:104BF300742C12591E1234B20259BA74F7120E0EE3
:104C0300EAFEEBFF901D31125FCB600D126235900F
:104C13001D31E4F0A3F01220728E828F8374081288
:104C2300591E12296C0259BA74F6120E0E901DD138
:104C3300E06013901D33E0700D124C4C123302EA06
:104C43004B60031233E6026D7890052FE0FB90056D
:104C53004FE0FA900534E0F92274F4120E0E74E773
:104C6300121504EAFEEBFF750B018E828F83A3A35B
:104C7300A3A3A3A3A3E0A2E25068EE242BF582E44E
:104C83003F12789A124D1A12330EE970559082DF53
:104C9300E064017005750B008048124D2212140A5E
:104CA3007C0B7D0074111214DE121FB274031214F4
:104CB300211234E8E9FA740E1214D68808890978A7
:104CC3000812140E750830750900780812140E12B4
:104CD30048F6121225126A0E79011235067406126D
:104CE3001421851882851983741012486D12179B3D
:104CF300AA82AB8312225E1248F6126A3A740B122E
:104D0300179B125F23740D12179BE50B1257911219
:104D1300296C7419023F02EE2413FAE43FFB22EEDE
:104D2300240812710C22C082C083901DD2E060035C
:104D330012355A025700C082C083901DC97410F007
:104D4300A3741DF0A37414F0A3741DF0A37420F0D6
:104D5300A3741DF0901EEA7457F0A3743BF0901DEA
:104D6300B374E4F0A37432F0901D55741AF0A37475
:104D730033F0901D577420F0A37433F0901DAEE010
:104D830044028001E4F0025700C082C083EAFCEBD6
:104D9300FD7903025D9CC082C083EAFCEBFD7905CB
:104DA300025D9CC082C0837908026F09C082C08300
:104DB30074FE121504901D5D74CEF0A37433F0904D
:104DC3001D5F74C8F0A37433F0800D7A4A7B1D1203
:104DD3001FFA1257871234D6901D4A125FCB70EB1D
:104DE300901D4C125FCB600F7A4C7B1D121FFA1281
:104DF30057871234D680E9901D4AE4F0A3F0901D42
:104E030050123ED974028002741112142102570009
:104E130074F6120E0EE9FF748229F582E4343EF52E
:104E230083E493FEFA7B00121FD0EA4B6011EA2E53
:104E3300125F198A828B83A3A3A3A3E4F0802C7A45
:104E4300027B00121FD0EA4B601D74612FF582E4D0
:104E5300343EF583E4938A828B83F0A3741AF09033
:104E63001DA9E0F9121FDC7A007B00026D78E9FCD2
:104E7300740629F8EAA2E0501EE875F00A84E5F00A
:104E8300F96014740A28C399F8E9C39405400474BB
:104E93000A28F8740B28F8ECC3941340047A14809E
:104EA300027A06EA2879002409F85001097A0A7B74
:104EB30000120BC3E8F90213EEC082C083901DAE4B
:104EC300E05402600A122972E960047901800279D0
:104ED30000025700C082C083901DAEE054026016EA
:104EE300901D50E0700C125FC8600BE0C81254654F
:104EF3005004790180027900025700C082C0839078
:104F030082DCE0F8901D52E0C3985005121FD08058
:104F1300047A007B00025700C082C0831234D67922
:104F23000002570074F7120E0E74FE121504851852
:104F330082851983EAF0A3EB125096A3A3A3A3A33C
:104F4300E0600A14606024FE606902501790053423
:104F5300E0640F60181234ACE97012851882851969
:104F630083126238901D5912552F120FDD90055C84
:104F7300E0C0E0851882851983125CFAD0E01250F4
:104F830096741412723112789C7A4C7B1D121FF4A2
:104F9300A8A8C2AF901D52E00412624E79201234C9
:104FA300A07402024906851882851983126E3E7425
:104FB3001580D0851882851983125079A3A3E060E8
:104FC30053851882851983E02402F8A3E03400F99D
:104FD3008882898312766FE0C0E085188285198301
:104FE300E0FCA3E0CC2406F582E43CF583D0E01298
:104FF3006A7A8882898312624885188285198312A6
:105003005361851882851983601312507E600512DF
:1050130050864043AA18AB191234D6808412507EAE
:1050230060F2125086501C125475FA851882851945
:1050330083125080F87497125F14343EF583E4931F
:105043006A601485188285198312507E640870C4BF
:10505300125475640870BD1254751412509E240ABC
:10506300C0E085188285198312552FD0E012509E17
:1050730004024F86E0F8A3125D4722E0F8A3E01292
:1050830050A522851882851983126A4B1250A6C334
:10509300940A221250B0F5838882221250B0125023
:1050A300A522C82406F582E438F583E0221272357E
:1050B300E0F8A3E022C082C083901D61125FCB6041
:1050C30008126E3F120FDD8002790002570074F759
:1050D300120E0EEAFEEBFF12409C7401F0EE243038
:1050E300F582E43FF5831267A81240762432125505
:1050F300B4C0E0EE2413F582E43FF583D0E0F0EE94
:1051030024331255B4C0E0EE2414F582E43FF58352
:10511300D0E0F0EE242CF582E43FF5831212251241
:105123005145EE242E1255B4F912350074021214AF
:1051330021E9F5087007EEFAEFFB1233E6A908023E
:1051430059BAEE2423FCE43FFD22C082C08312340B
:10515300ACE96004792080027901025700C082C063
:1051630083EA125343125204D2E0024D88C082C034
:10517300831251FE64017011125209400C8A828B12
:1051830083A3E0F91234A6806FEA2410125201A21D
:10519300E650128A828B83A3E0F9901D5B12552F90
:1051A300120FDD80531251FE6401700D125209502B
:1051B300088A828B83743080368A828B83A3E0646F
:1051C3001B8A828B83700474228024A3E0700D12E7
:1051D30051FEF8746C125F14343E800B1251FEF8CA
:1051E3007461125F14343EF583E4938A828B83F0F7
:1051F300901DA9E0F9121FDC025700EA240DF58285
:10520300E43BF583E022EA12536D3BF583E0A2E32E
:105213002274F7120E0EE9FE125FC8700302533AAE
:10522300EE6011741B6E7013E0C812533D64057079
:1052330003025305126E2EE402530974E96E706281
:10524300125359700B122978E96005125373606287
:1052530079EE121A30901D53125356901D53603B32
:10526300125376901D53700B12535614F0121BE613
:1052730002533A125361C2E712548112533D64033D
:10528300700C126A441253431250ABD2E2F079ED20
:10529300121A30125349120FDD8075126E3174E900
:1052A300806474E16E703E122978E960551253737D
:1052B3007050900556E0C0E0126A442412F582E46F
:1052C30038F583D0E0F0900545E0C0E0901D53121F
:1052D3005077125077D0E0F0900545E004F0790163
:1052E300121BCE8052741C6E7018901D53126238BC
:1052F300901D6312552F120FDD901D53E4F0A3F0A0
:105303008035126E2EEEF0901D531262381233D494
:10531300126A44126A16E05480601090055CE0F94A
:10532300121AEA90055BE0F9121ADE901D53E4F0BD
:10533300A3F079101234A00259BA240D1250A822F6
:105343002411F582E422901D5312623C901D5712E2
:105353006E3822E0F8A3E0C824121250A822E0F825
:10536300A3E0C812536D1250AB222410F582E4223D
:10537300901D53126A4B126A1AE054042274F412F9
:105383000E0E750A00750B00A2AFE433FFC2AF1215
:105393005FC8600302543D12552C120FDDE944101F
:1053A300F8901D4A800985080A85090B1254581282
:1053B300546D700302543D1245C2586870E8780A70
:1053C30012140EAC08AD097A4A7B1D122006740232
:1053D300121421901D53E508F0A3E509125481121C
:1053E3005465405D901D51E014F0EFA2E092AF9040
:1053F3001D53E0240EF8A3E03400F98808890988D6
:1054030082F583126238901D5312547BF91233983C
:10541300E9901D4EF0125489E05480901D5360268C
:10542300126A4724131250A8F9121AEA126A442482
:10543300141250A8F9121ADE8018EFA2E092AF807E
:1054430011901D5080A1125361A2E1B3E433F9120C
:105453001BCE023F05E50824FBF582E50934FFF581
:10546300832224111250A8A2E722127473E508457F
:1054730009228518828519831242C4A3E022F09081
:105483001D53126A4B22A3E4F08508828509832207
:1054930074F7120E0EEAFEEBFF1234D0EE24101254
:1054A30055B4A2E3400C1255B1640170059082DA41
:1054B30080039082DBE0F9EEFCEFFD7A4A7B1D125C
:1054C300200CE96046EEFAEFFB901D5D12552F129A
:1054D3000FDDEE240E1255B454047020A8A8C2AFF9
:1054E300901D51E00412622EFAE8A2E792AF125522
:1054F3001EA3E0540170211233E0801CEEFAEFFB8F
:10550300901D5512552F120FDD800D8E828F83A3B0
:1055130074F112591E1233D40259BA12552222EED3
:10552300240EF582E43FF58322901D5F126E38222C
:10553300C082C0831233E002570074F7120E0EEAE2
:10554300FEEBFF7900901DAEE05402700CEE2430A8
:105553001255B45404600279E8901DAEE0546070B3
:105563000CEE24301255B45402600279E88E828F17
:1055730083A3A3A3A3E0F89082E0E0C39850027949
:10558300E8EE242E1255B4700CEE242B1255B47091
:105593000479F5800BE970051233C2E9F9E9600774
:1055A300EEFAEFFB1234A60259BA34FFF509EE24E2
:1055B3000DF582E43FF583E022C082C0838A828BAB
:1055C30083740DF012296C025700C082C0838A8253
:1055D3008B83E4F0A3F0EA24301252015404908246
:1055E300DA7012E0F8901D51E0C398401279F1127D
:1055F30034A6025700E0F8901D50E0C39850EE9097
:105603001DA9E0F9121FDC80E974F6120E0EE9FE03
:10561300244CFAE43400FB121FD0EA4B6012EE8AEA
:10562300828B83A3A3A3A3F0EA244C125F19800403
:105633007A007B00026D78C082C083901D65742E52
:10564300F0A37434F0A3745EF0A37434F0A3743441
:10565300F0A37434F0A3743AF0A37434F0A3745831
:10566300F0A37434F0A3744CF0A37434F0A3744621
:10567300F0A37434F0A37464F0A37434F0A3746AD5
:10568300F0A37434F0A37470F0A37434F0A3747CA7
:10569300F0A37434F0A37440F0A37434F0A374281B
:1056A300F0A37434F0A37422F0A37434F0901D813A
:1056B3007452F0A37434F0A37476F0A37434F0A39B
:1056C3007490F0A37435F0A37482F0A37434F0A340
:1056D3007488F0A37434F0901DA5E4F0901DA8F035
:1056E300901D911256F77402F0901D9A1256F7749A
:1056F30001024D8874A0F0A37434F0A322D083D0A8
:10570300820213EE74F5120E0E74F112150485184D
:10571300828519837402F0740112179BE9F0600407
:105723007AFF7BFF740212179B12624875089D75FE
:10573300091D750A00780812140A7C0B7D00740792
:1057430012179BAA82AB83121FB27403121421AAED
:1057530018AB1912296C740F0273D374F7120E0E5F
:1057630074FD121504851882851983740AF0740177
:1057730012179BE9F0740212179BEA125791122930
:105783006C024904851882851983EAF0A3EBF0AA19
:1057930018AB192274F6120E0E74F7121504EAFEF2
:1057A300EBFF1257E7124094740212590FAA18AB79
:1057B3001912225EEE242E12406224301268151252
:1057C300140E74021214E679831A1AEFFB123500D1
:1057D3007402121421E9F5087007EEFAEFFB123395
:1057E300E6026D7112552274012274F0120E0E122C
:1057F30072BC12172C7808790C120CA778081214B3
:10580300067A947B1D0242E774F4120E0E74C612DC
:105813001504900534E0640F6010851882851983A0
:10582300742E1257911234B280277A8B7B1D123556
:10583300D8123F13120BCB88088909E4F50AF50B3C
:1058430078081214067A8B7B1D1235CC740412145B
:1058530021743A023F0274F5120E0EEAFEEBFF8E3C
:10586300828F83A3E0F860030258F8EE242D1255CB
:10587300B464026007E06403600278E8EE2423F571
:1058830082E43FF583123F0C400478E8806AE870B5
:1058930064EE2423FAE43FFB79E1121AAEEE242EE0
:1058A300FAE43FFB7950121AAEEE242D1255B4647C
:1058B30002700E126A04126A3A900543125F238043
:1058C3001290054374FEF0A30412590F7A3A7B0534
:1058D30012226AEE2418124D2512140A7C0B7D0045
:1058E3007A9D7B1D121FB27403121421EEFAEFFB93
:1058F30012341CE9F8E86011E88E828F83A3126CDE
:1059030066741712591E1234B20273D6F0EE2425B0
:10591300FCE43FFD228E828F837429F0EEFAEFFBC5
:105923002274F6120E0E74F7121504901DA8E0707F
:105933003B7401F0F9121B98AA18AB191234E275E3
:10594300089D75091D780812140E75080175090064
:10595300780812140E90054912122574061214E6E3
:105963007A0379051235067406121421026D7374D5
:10597300F7120E0EEAFEEBFF7901121B9E8E828F49
:1059830083E064207004A374EBF0901DA8E0A2E20E
:105993005003C2E2F0E0A2E15008125BBC123416DD
:1059A300800C8E828F83742A12591E1234B28007A0
:1059B300EEFAEFFB12354E7F0102115E74F4120E04
:1059C3000E74FE121504EAFEEBFF7901121B9E7A98
:1059D3008B7B1D1235D87A947B1D1235D8125D0648
:1059E300851882851983125D3AE0F50B700FAA18AA
:1059F300AB197953121AAE127463121AAE124D22F6
:105A030012140A7C0B7D007A9D7B1D121FB2740356
:105A1300121421851882851983126238A90B123456
:105A230010901DA8E0A2E1500C7A008E828F83A310
:105A3300E0F9123416901DA8E4F07402023F0274D8
:105A4300F7120E0EEAFEEBFF8E828F83A374EBF048
:105A5300901DA8E0A2E150077A0079EB123416EE0C
:105A6300FAEFFB12344C0259BA74F7120E0EEAFE27
:105A7300EBFF7901121B9E7A8B7B1D1235D87A942A
:105A83007B1D1235D8901DA5E4F0901DA8F07AFF78
:105A93007BFF8E828F83A3E0F91234100259BA740C
:105AA300F7120E0EEAFEEBFF1234460259B374F7F7
:105AB300120E0EEAFEEBFF7901121B9E8E828F837C
:105AC300A3A3A3A3E060047400800274EB125B033E
:105AD3005003C2E2F0E0A2E15008125C0512341652
:105AE3008014A2E050108E828F83742AF0A374EB8B
:105AF30012591E1234B2EEFAEFFB1233F80259BAFE
:105B03008E828F83A3F0901DA8E0A2E22274F61286
